:020000040800F2
:1000000000800020D11E00085D0600085F06000881
:10001000610600086306000865060008000000008D
:10002000000000000000000000000000670600085B
:1000300069060008000000006B0600086D06000855
:10004000211F0008211F0008211F0008211F000890
:10005000211F0008211F0008211F0008211F000880
:10006000211F0008211F0008211F0008211F000870
:10007000211F0008211F0008211F0008211F000860
:10008000211F0008211F0008211F0008211F000850
:1000900000000000211F0008211F0008211F000888
:1000A000211F0008211F0008211F0008211F000830
:1000B000211F0008211F0008211F0008211F000820
:1000C000211F0008211F0008211F0008211F000810
:1000D000211F0008211F0008211F0008211F000800
:1000E000211F0008211F0008211F0008211F0008F0
:1000F000211F00080000000000000000211F000870
:10010000211F0008211F0008211F0008211F0008CF
:10011000211F0008211F0008211F0008211F0008BF
:10012000211F0008211F0008211F0008211F0008AF
:08013000211F0008211F000837
:1001380010B5054C237833B9044B13B10448AFF319
:1001480000800123237010BD100000200000000073
:100158007C1F000808B5034B1BB103490348AFF3E4
:10016800008008BD00000000140000207C1F00086B
:1001780053B94AB9002908BF00281CBF4FF0FF3106
:100188004FF0FF3000F06CB9ADF1080C6DE904CE0A
:1001980000F006F8DDF804E0DDE9022304B070475A
:1001A8002DE9F047089E0D4604468E46002B40F088
:1001B80082808A42174646D9B2FA82F24AB1C2F11F
:1001C800200105FA02F320FA01F1974041EA030EF3
:1001D80094404FEA1748230CBEFBF8FCB9B208FB61
:1001E8001CEE43EA0E430CFB01F098420AD9FB18B7
:1001F8000CF1FF3580F01681984240F21381ACF182
:10020800020C3B441B1AA4B2B3FBF8F008FB1033F2
:1002180044EA034400FB01F1A14209D93C1900F169
:10022800FF3380F00181A14240F2FE8002383C4455
:10023800641A40EA0C4000211EB1D4400023C6E9EC
:100248000043BDE8F08702B9FFDEB2FA82F2002A65
:100258004FD1CB1B4FEA174E1FFA87F80121B3FB8A
:10026800FEFC250C0EFB1C3345EA034508FB0CF38A
:10027800AB4207D97D190CF1FF3002D2AB4200F234
:10028800E7808446ED1AA3B2B5FBFEF00EFB1055CD
:1002980043EA054408FB00F8A04507D93C1900F1DA
:1002A800FF3302D2A04500F2D7801846A4EB080419
:1002B80040EA0C40C0E78B4208D9002E00F0AF801E
:1002C8000021C6E900050846BDE8F087B3FA83F1C6
:1002D80000294BD1AB4202D3824200F2B780841A84
:1002E80065EB030301209E46002EAAD0C6E9004E06
:1002F800A7E7C2F1200C01FA02F3974020FA0CF0AC
:100308004FEA174E21FA0CFC1843BCFBFEF1050C12
:100318000EFB11CC1FFA87F845EA0C4501FB08F3E0
:10032800AB4204FA02F409D97D1901F1FF3C80F0CF
:100338008B80AB4240F2888002393D44EB1A85B28B
:10034800B3FBFEF00EFB103345EA034500FB08F350
:10035800AB4207D97D1900F1FF3C71D2AB426FD98E
:1003680002383D44EB1A40EA014178E7C1F1200C1C
:100378008B4022FA0CF71F4320FA0CF405FA01F31C
:100388004FEA174E25FA0CF51C43230CB5FBFEF972
:100398001FFA87F80EFB195543EA054509FB08FAC9
:1003A800AA4502FA01F200FA01F308D97D1909F108
:1003B800FF3047D2AA4545D9A9F102093D44A5EB2A
:1003C8000A05A4B2B5FBFEF00EFB105544EA05443D
:1003D80000FB08F8A04507D93C1900F1FF352DD2DC
:1003E800A0452BD902383C4440EA0940A4EB080454
:1003F800A0FB02894C45C6464D4619D316D05EB1BE
:10040800B3EB0E0264EB050404FA0CFCCA404CEA98
:100418000202CC40C6E900240021BDE8F08731463D
:1004280030460EE7AC46EDE6184601E74345E6D20E
:10043800B8EB020E69EB07050138E0E72846D3E779
:1004480060468FE78146BAE7614677E708464BE79B
:10045800ACF1020C3D4415E702383C4426E700BFE6
:10046800704700BF2DE9F04188B04FF0B043DA6C17
:1004780042F00102DA64DA6C02F001020292029A96
:10048800DA6C42F00202DA64DA6C02F002020192DB
:10049800019ADA6C42F00402DA64DB6C03F00403BC
:1004A8000093009B4FF40048CDF80C801227049766
:1004B80001260596002406940425079503A94FF004
:1004C800904001F05BF8CDF80C80049705960694EF
:1004D80007951B4E03A9304601F050F8C02303933B
:1004E80002250495059406940723079303A930462B
:1004F80001F044F84FF4C44303930495059406941B
:100508000527079703A9304601F038F84FF48063B0
:100518000393049505940694079703A94FF0904018
:1005280001F02CF8032303930495059406940823FB
:10053800079303A9034801F021F808B0BDE8F0814A
:10054800000400480008004872B6FEE708B50448F1
:100558001023036000F0F0F800B908BDFFF7F4FFBE
:100568002C00002008B51548154B03604FF4E13303
:10057800436000238360C36003610C22426183618E
:10058800C36103624362836201F0C9FB70B9002151
:100598000A4801F04EFC58B90021084801F06EFCE9
:1005A80040B9064801F026FC30B908BDFFF7CCFF7A
:1005B800FFF7CAFFFFF7C8FFFFF7C6FF38000020A4
:1005C8000044004000B59BB04822002108A801F073
:1005D800C9FC00230293039304930593069307939E
:1005E80015490A6822F4C06242F480620A600A6807
:1005F80002F4C0620192019A012208924FF4041297
:1006080009920A93139308A800F008FA80B94F23B7
:1006180002930223039300230493059306930793FD
:10062800012102A800F036FD20B91BB05DF804FBDB
:10063800FFF78AFFFFF788FF0004005808B501F0AC
:10064800E7F8FFF7BFFFFFF70DFFFFF77FFFFFF7A3
:1006580089FFFEE7FEE7FEE7FEE7FEE7FEE77047F5
:100668007047704708B501F0E9F808BD704782B0D7
:100678004FF0B0435A6E42F001025A665B6E03F0C7
:1006880001030193019B02B07047000010B596B0BA
:100698000446002111911291139114911591382259
:1006A80003A801F05FFC2268194B9A4201D016B0EA
:1006B80010BD022303934FF44023059303A800F0D1
:1006C8001BFE10BB4FF0B0439A6D42F400329A659E
:1006D8009A6D02F400320292029ADA6C42F0010238
:1006E800DA64DB6C03F001030193019B0C23119383
:1006F800022312930023139314930723159311A92C
:100708004FF0904000F03AFFD1E7FFF71DFFD9E71F
:1007180000440040074B1A6822F040021A6040F477
:10072800417018604FF4B8525A601A6842F040029B
:100738001A6070470000015830B583B000284ED0C9
:1007480004468379002B3BD00223A3714FF0B042BB
:10075800D2F8943023F40043C2F89430214B1B683C
:10076800C3EBC303C3F34C43642202FB03F30193BB
:10077800019B4BB3019B013B01934FF0B043D3F86E
:10078800943013F4804FF3D10025174BD3F8902001
:1007980042F40042C3F890201449D1F8902042F462
:1007A8008052C1F890209A6842F400629A604FF42F
:1007B80000629A615DB10123A371284603B030BD80
:1007C8004371FFF754FFBFE70125A560DDE7206807
:1007D800FFF7A0FF012323710023A360EBE70125A6
:1007E800EBE700BF0800002000040058000800588C
:1007F80070B588B004460E46294B93E8030006906E
:10080800ADF81C10D96898680490ADF8141001ADC3
:10081800103393E8070085E80700B6F5007F1BD082
:100828000023022B22D808AA02EB430232F8102C2C
:10083800A24215D20133F4E70133022B0ED808AADD
:1008480002EB430232F8082CA242F5D308AA02EBC5
:10085800830353F81C5C0AE00023EEE7002506E05A
:1008680008AA02EB830353F81C5C00E000250D4A3C
:10087800136823F007032B43136000F0EBFF0446D3
:10088800084B1B6803F00703AB4206D000F0E2FFF9
:10089800001B0228F4D9032000E0002008B070BD36
:1008A800981F00080040005810B5C0F303100C4B07
:1008B80053F820404FF0B043D3F8083103F00F034A
:1008C800084A52F82300B4FBF0F400F015FF014683
:1008D8000548A0FB0430800CFFF78AFF10BD00BF5D
:1008E80040200008E01F000883DE1B434FF0B043A0
:1008F8009A68DB6803F0030312F00C020AD00C2A92
:1009080006D0042A47D0082A3BD00021084626E012
:10091800012BF6D14FF0B0431B6813F008030DD03C
:100928004FF0B0431B6813F0080324D14FF0B041D7
:10093800D1F894102E4951F823100EE04FF0B04131
:10094800096811F0080F12D14FF0B043D3F8943072
:10095800C3F30323264951F82310D2B100204FF0E6
:10096800B0439B6803F00C030C2B1AD070474FF070
:10097800B0410968EEE74FF0B0431B68C3F30313B7
:10098800D8E74FF0B043196811F4801106D119481F
:10099800E5E70846E3E700211748E0E700211648A5
:1009A800DDE74FF0B043DB6803F00303022B09D007
:1009B800032B08D14FF0B0431B6813F4801F15D1E7
:1009C8000C4900E00C494FF0B042D068C0F3062053
:1009D80000FB01F0D368C3F302130133B0FBF3F05B
:1009E800D3685B0F0133B0FBF3F0BFE70249EAE7D6
:1009F800402000080048E8010024F40008B5FFF78B
:100A080075FF4FF0B0439B68C3F30313024A52F8D3
:100A18002330B0FBF3F008BDE01F0008002800F009
:100A28001883F8B504464FF0B0439D6805F00C05EF
:100A3800DE6806F00306036813F0200F00F08F80CD
:100A4800EDB10C2D19D0236A002B00F0BC804FF0BB
:100A5800B042136843F00103136000F0FBFE074641
:100A68004FF0B0431B6813F0020F65D100F0F2FE9F
:100A7800C01B0228F4D90320F8E2012EE3D14FF07D
:100A8800B0431B6813F0020F03D0236A002B00F059
:100A9800E282A06A4FF0B0431B6813F0080F29D018
:100AA8004FF0B0431B6803F0F00398422AD9FFF7D0
:100AB800FBFE002840F0D1824FF0B0431A6842F0A4
:100AC80008021A601A6822F0F002A16A0A431A6042
:100AD800616A5A6822F47F4242EA01225A60FFF7AB
:100AE8008DFFBC4B1860BC4B186800F069FE0028ED
:100AF80035D0BBE24FF0B043D3F894301B0903F074
:100B0800F003D2E74FF0B0431A6842F008021A60C7
:100B18001A6822F0F002A16A0A431A60616A5A68E8
:100B280022F47F4242EA01225A60A06AFFF7BCFE23
:100B38000028D4D0012099E24FF0B0431A6842F05F
:100B480008021A601A6822F0F002A16A0A431A60C1
:100B5800616A5A6822F47F4242EA01225A60236895
:100B680013F0010F51D0082D45D00C2D41D04FF076
:100B7800B042136823F48013A1680B4313606368C1
:100B8800B3F5803F63D0B3F5041F65D04FF0B04391
:100B98001A6822F480321A601A6822F400121A6065
:100BA8006368002B63D000F055FE07464FF0B04352
:100BB8001B6813F4003F28D100F04CFEC01B6428CA
:100BC800F4D9032052E24FF0B042136823F0010336
:100BD800136000F03FFE07464FF0B0431B6813F068
:100BE800020FBCD000F036FEC01B0228F4D9032047
:100BF8003CE2032EBBD14FF0B0431B6813F4003F17
:100C080003D06368002B00F02A82236813F0020FD8
:100C180052D0042D3DD00C2D39D02369002B00F083
:100C280091804FF0B042136843F48073136000F072
:100C380011FE06464FF0B0431B6813F4806F77D15E
:100C480000F008FE801B0228F4D903200EE2136886
:100C580043F480331360A3E74FF0B0431A6842F4BB
:100C680000121A601A6842F480321A6098E700F09D
:100C7800F1FD07464FF0B0431B6813F4003FC4D0A2
:100C880000F0E8FDC01B6428F4D90320EEE1022E31
:100C9800C3D14FF0B0431B6813F4806F03D02369AE
:100CA800002B00F0DE8161694FF0B042536823F0F9
:100CB800FE4343EA01635360236813F0080F00F012
:100CC8008D80A369002B6CD04FF0B043D3F89430DB
:100CD800E16903F01002914211D003F00302022AE5
:100CE80000F0C18113F0010F42D14FF0B042D2F8A9
:100CF800943023F01003E1690B43C2F894304FF0AD
:100D0800B042D2F8943043F00103C2F8943000F0B6
:100D1800A1FD06464FF0B043D3F8943013F0020F0C
:100D28005CD100F097FD801B1128F3D903209DE1C9
:100D380061694FF0B042536823F0FE4343EA016310
:100D48005360B9E74FF0B042136823F4807313601F
:100D580000F080FD06464FF0B0431B6813F4806F27
:100D6800AAD000F077FD801B0228F4D903207DE18A
:100D78004FF0B042D2F8943023F00103C2F8943017
:100D880000F068FD06464FF0B043D3F8943013F0F6
:100D9800020FAAD000F05EFD801B1128F3D90320B2
:100DA80064E14FF0B042D2F8943023F00103C2F866
:100DB800943000F04FFD06464FF0B043D3F894301E
:100DC80013F0020F0AD000F045FD801B1128F3D95B
:100DD80003204BE10800002004000020236813F0E2
:100DE800040F00F0B180A94B1B6813F4807F10D169
:100DF80000F07AFC00F02EFD0646A44B1B6813F4A5
:100E0800807F06D100F026FD801B0228F5D903203B
:100E18002CE1E368002B61D0852B01D0052B07D18D
:100E28004FF0B042D2F8903043F00403C2F890304B
:100E380000F010FD06464FF0B042D2F8903043F073
:100E48000103C2F890304FF0B043D3F8903013F05C
:100E5800020F08D100F0FEFC801B41F28833984253
:100E6800F1D9032002E1E368812B01D0852B1AD147
:100E780000F0F0FC06464FF0B042D2F8903043F054
:100E88008003C2F890304FF0B043D3F8903013F499
:100E9800006F59D100F0DEFC801B41F28833984284
:100EA800F1D90320E2E000F0D5FC06464FF0B0424D
:100EB800D2F8903023F08003C2F890304FF0B0435E
:100EC800D3F8903013F4006F3ED000F0C3FC801BC1
:100ED80041F288339842F1D90320C7E000F0BAFC08
:100EE80006464FF0B042D2F8903023F08003C2F8A3
:100EF80090304FF0B043D3F8903013F4006F08D01F
:100F080000F0A8FC801B41F288339842F1D90320F5
:100F1800ACE000F09FFC06464FF0B042D2F89030AB
:100F280023F00103C2F890304FF0B043D3F890306B
:100F380013F0020F08D000F08DFC801B41F28833BB
:100F48009842F1D9032091E0E36A002B00F08D80EC
:100F58000C2D62D0022B1FD04FF0B0431A6822F03C
:100F680080721A60DA6822F00302DA60DA6822F026
:100F7800885222F48032DA6000F06CFC04464FF0AC
:100F8800B0431B6813F0007F73D000F063FC001BB4
:100F98000A28F4D9032069E04FF0B042136823F01F
:100FA8008073136000F056FC05464FF0B0431B6891
:100FB80013F0007F2AD14FF0B042D368344919406A
:100FC800236B606B0343A06B43EA0023E06B03438E
:100FD800206C0343606C03430B43D360136843F0F6
:100FE80080731360D36843F08053D36000F032FC01
:100FF80004464FF0B0431B6813F0007F37D100F070
:1010080029FC001B0A28F4D903202FE000F022FC59
:10101800401B0A28C9D9032028E0012B2BD04FF008
:10102800B043DB6803F00301226B914225D103F042
:101038007002616B8A4222D103F4FE42A16BB2EBCB
:10104800012F1ED103F06043626C93421BD1002034
:101058000CE001207047012008E0012006E0012093
:1010680004E0012002E0012000E00020F8BD00209B
:10107800FCE70020FAE70120F8E70120F6E7012065
:10108800F4E70120F2E70120F0E700BF0004005870
:101098008C80C111002800F0048170B50C4605460B
:1010A800824B1B6803F007038B4227D32B6813F08E
:1010B800020F39D12B6813F0400F4DD12B6813F074
:1010C800040F65D12B6813F0080F79D12B6813F042
:1010D800010F00F0C1806B68022B00F08B80032B9E
:1010E80000F09080002B40F095804FF0B0421268DD
:1010F80012F0020F40F094800120D1E06B4A13688F
:1011080023F007030B43136000F0A4FB0646674B6C
:101118001B6803F00703A342C8D000F09BFB801BA9
:101128000228F4D90320BBE0AB684FF0B0418A68CD
:1011380022F0F00213438B6000F08CFB06464FF060
:10114800B0439B6813F4803FB4D100F083FB801B4D
:101158000228F4D90320A3E069694FF0B042D2F81D
:10116800083123F00F0343EA1113C2F8083100F0E5
:1011780071FB06464FF0B043D3F8083113F4803FB3
:101188009CD100F067FB801B0228F3D9032087E07D
:10119800EB684FF0B0418A6822F4E06213438B6039
:1011A80000F058FB06464FF0B0439B6813F4003F2D
:1011B80088D100F04FFB801B0228F4D903206FE090
:1011C80029694FF0B042936823F4605343EAC1039E
:1011D800936000F03FFB06464FF0B0439B6813F462
:1011E800802F7FF473AF00F035FB801B0228F3D902
:1011F800032055E04FF0B042126812F4003F0FD1BF
:1012080001204DE04FF0B042126812F0007F07D184
:10121800012045E04FF0B042126812F4806F42D0CE
:101228004FF0B0418A6822F0030213438B6000F04C
:1012380011FB06464FF0B0439B6803F00C036A6845
:10124800B3EB820F08D000F005FB801B41F2883316
:101258009842EFD9032023E0144B1B6803F00703DF
:10126800A34215D9114A136823F0070323431360D7
:1012780000F0F0FA05460D4B1B6803F00703A34284
:1012880006D000F0E7FA401B0228F4D9032007E053
:10129800FFF7B4FB064B1860064B186800F090FA8D
:1012A80070BD012070470120FAE700BF00400058D8
:1012B800080000200400002008B5FFF79FFB4FF04E
:1012C800B0439B68C3F30223024A52F82330D84044
:1012D80008BD00BF2020000808B5FFF78FFB4FF0BE
:1012E800B0439B68C3F3C223024A52F82330D84064
:1012F80008BD00BF2020000870B50446036813F439
:10130800803F40F0D6800025236813F0010F0AD0F3
:1013180062684FF0B041D1F8883023EA124392B2A4
:101328001343C1F88830236813F0020F0AD0A2686B
:101338004FF0B041D1F8883023EA124392B21343F8
:10134800C1F88830236813F0200F09D023694FF0C3
:10135800B041D1F8882022F440621343C1F88830A4
:10136800236813F4007F0CD0206A4FF0B041D1F805
:101378008830020C120423EA020343EA0043C1F84E
:101388008830236813F4806F0CD0606A4FF0B04146
:10139800D1F88830020C120423EA020343EA00431E
:1013A800C1F88830236813F4006F0CD0A06A4FF09E
:1013B800B041D1F88830020C120423EA020343EA50
:1013C8000043C1F88830236813F0400F0FD06369D9
:1013D8004FF0B040D0F88820190901F47F2122EAA3
:1013E80001021B0103F47F231343C0F888302368EC
:1013F80013F0800F0FD0A3694FF0B040D0F88820C9
:10140800190901F47F2122EA01021B0103F47F2359
:101418001343C0F88830236813F4807F0FD0E36942
:101428004FF0B040D0F88820190901F47F2122EA52
:1014380001021B0103F47F231343C0F8883023689B
:1014480013F0100F0DD0E3684FF0B041D1F88820A9
:1014580022F440721343C1F88830E368B3F5807F03
:101468007FD0236813F4004F0FD0236B4FF0B041A7
:10147800D1F8882022F040421343C1F88830236B0A
:101488001BB9CB6843F08073CB60236813F4804F9B
:101498000DD0E36A4FF0B041D1F8882022F04052D5
:1014A8001343C1F88830E36AB3F1005F5ED0284681
:1014B80070BD00F019F900F0CDF905462E4B1B68F8
:1014C80013F4807F06D100F0C5F9401B0228F5D936
:1014D800032500E00025002D7FF416AF4FF0B04340
:1014E800D3F8903003F44073626B9A4224D04FF0E3
:1014F800B043D3F8902022F44072D3F8901041F40E
:101508008031C3F89010D3F8901021F48031C3F8DB
:101518009010C3F8902012F0020F0FD1002D7FF425
:10152800F3AE636B4FF0B041D1F8902022F44072D3
:101538001343C1F89030E7E60022ECE700F08AF99F
:1015480006464FF0B043D3F8903013F0020FE5D1C0
:1015580000F080F9801B41F288339842F1D90325C5
:10156800DCE7CB6843F08073CB607AE7CB6843F461
:101578008033CB609BE700BF00040058F0B5002320
:1015880091E086685F000325BD4026EA0506CD6820
:10159800BD4035438560466826EA04064D68C5F3B4
:1015A80000149C4034434460C7685E000325B5407E
:1015B800EC4327EA05078D68B5403D43C5604D6893
:1015C800022D01D0122D13D1DF08083750F827E07B
:1015D80003F007054FEA850C0F2505FA0CF52EEAEE
:1015E800050E0D6905FA0CF545EA0E0540F8275079
:1015F800056825404C6804F00304B4402C4304609B
:101608004C6814F0805F4DD09D08AE1C334C54F8E4
:10161800267003F00304A6000724B44027EA040751
:10162800B0F1904F55D02E4CA04254D004F58064B0
:10163800A0424CD00724B4403C430235274E46F81C
:101648002540284CD4F88050D44325EA02064F6838
:1016580017F4803F01D042EA0506224DC5F88060A4
:10166800D5F8845004EA05064F6817F4003F01D006
:1016780042EA05061B4DC5F884602D6804EA050694
:101688004F6817F4801F01D042EA0506154D2E60F9
:101698006D682C404E6816F4001F01D042EA05041C
:1016A800104A546001330A6832FA03F415D0012451
:1016B8009C402240F6D04D686E1E012E7FF661AF29
:1016C800112D3FF45EAF122D7FF46EAF59E702245F
:1016D800B1E70024AFE70124ADE7F0BD0000014009
:1016E8000004004800080058024A136843F4807355
:1016F8001360704700040058024B186800F4C0607B
:10170800704700BF00040058074AD36823F4E06319
:101718001B041B0C000200F4E060034343F0BF63AA
:1017280043F40033D360704700ED00E030B4174B4A
:10173800DB68C3F30223C3F10704042C28BF042485
:101748001D1D062D18D9033B4FF0FF3505FA04F48B
:1017580021EA0401994005FA03F322EA0303194335
:1017680000280BDB0901C9B200F1604000F56140B7
:1017780080F8001330BC70470023E5E700F00F0045
:101788000901C9B2024B1954F4E700BF00ED00E0AB
:1017980014ED00E00138B0F1807F0AD2064B5860A2
:1017A800064AF02182F823100020986007221A6068
:1017B80070470120704700BF10E000E000ED00E036
:1017C800114B1B780BB90120704710B50446FFF781
:1017D80015F90D4B1A784FF47A73B3FBF2F3B0FB9B
:1017E800F3F0FFF7D7FF68B90F2C01D901200AE001
:1017F800002221464FF0FF30FFF798FF034B1C6093
:10180800002000E0012010BD00000020040000209E
:1018180010B50320FFF778FFFFF7F0F8064B1860C4
:101828000F20FFF7CDFF10B10124204610BD04465C
:10183800FEF71CFFF9E700BF08000020034B1B78E8
:10184800034A11680B441360704700BF0000002072
:10185800C8000020014B1868704700BFC80000206E
:101868002DE9F0410446016883680269134342691F
:101878001343C26913430868A14A024013430B602B
:101888002268536823F44053E1680B435360A1690D
:1018980022689C4B9A4201D0236A1943936823F02B
:1018A8006E4323F430630B4393602268D36A23F0BA
:1018B8000F03616A0B43D3622268934B9A421CD090
:1018C800924B9A4231D08F4B9A424BD010238D497C
:1018D8008A4268D0E069B0F5004F00F0A780082B75
:1018E80000F22281DFE813F0D500F800D3002001D0
:1018F800FB00200120012001FE004FF0B043D3F887
:10190800883003F0030343F44033A3F54033032B3B
:1019180009D8DFE803F002043C060123D7E70423D3
:10192800D5E70823D3E71023D1E74FF0B043D3F826
:10193800883003F00C0343F44023A3F540230C2B19
:101948000ED8DFE803F0070D0D0D090D0D0D260D5E
:101958000D0D0B000023BAE70423B8E70823B6E708
:101968001023B4E74FF0B043D3F8883003F4406352
:10197800B3F5006F0FD005D87BB1B3F5806F0ED1EA
:101988000423A4E7B3F5406F0BD108239FE7022394
:101998009DE702239BE7022399E7002397E710239B
:1019A80095E7102393E7082B00F29F80DFE803F008
:1019B800089D3C9D399D9D9D05004FF4004004E025
:1019C800FFF77AFC002800F09280626A504B33F8E7
:1019D8001220B0FBF2F3656805EB4501994200F26D
:1019E8008880B3EB053F00F286804FF0000892B282
:1019F80000234146FEF7BCFB0F0247EA10670602C8
:101A080068082A464346301847F10001FEF7B0FB44
:101A1800A0F540723F4B9A426FD82368D860404681
:101A280050E0FEF763FFCDE73B48CEE7082B75D8BB
:101A3800DFE803F0072705742A7474740B0036482E
:101A480003E0FFF739FC00286AD0626A304B33F8AC
:101A58001230B0FBF3F06268530803EB4000B0FBB0
:101A6800F2F080B2A0F110024FF6EF739A4259D803
:101A780020F00F03C0F3420018432368D860002009
:101A880020E0FFF729FCDEE7FEF730FFDBE722481E
:101A980003E0FFF711FC002848D0626A1C4B33F8BA
:101AA8001230B0FBF3F0636800EB5300B0FBF3F0C7
:101AB80080B2A0F110024FF6EF739A4238D823682B
:101AC800D86000200123A4F86A30A4F86830002305
:101AD80023676367BDE8F081FFF7FEFBDBE7FEF7EE
:101AE80005FFD8E74FF40040D7E70120EAE70020D8
:101AF800E8E70120E6E70120E4E70120E2E700BF8C
:101B0800F369FFCF008000400038014000440040E6
:101B1800BC1F0008FFFC0F000024F4000120D1E7DF
:101B28000020CFE70120CDE70120CBE70020C9E75F
:101B38000120C7E7836A13F0010F06D002685368D3
:101B480023F40033C16A0B435360836A13F0020F16
:101B580006D00268536823F48033016B0B4353604B
:101B6800836A13F0040F06D00268536823F48023B5
:101B7800416B0B435360836A13F0080F06D0026869
:101B8800536823F40043816B0B435360836A13F05B
:101B9800100F06D00268936823F48053C16B0B437F
:101BA8009360836A13F0200F06D00268936823F4C9
:101BB8000053016C0B439360836A13F0400F0AD003
:101BC8000268536823F48013416C0B435360436CE1
:101BD800B3F5801F0BD0836A13F0800F06D002681C
:101BE800536823F40023C16C0B43536070470268A9
:101BF800536823F4C003816C0B435360EBE72DE972
:101C0800F84305460F4616469946DDF820802C68AD
:101C1800E46937EA04030CBF01240024B44241D12B
:101C2800B8F1FF3FF3D0FFF715FEA0EB09004045E0
:101C380024D8B8F1000F21D02B681A6812F0040FCD
:101C4800E5D0DA6912F4006FE1D04FF400621A624D
:101C58002A68136823F4D07313602A68936823F002
:101C6800010393602023C5F88430C5F88830C5F88F
:101C78008C30002385F88030032014E02A6813682C
:101C880023F4D07313602A68936823F001039360E8
:101C98002023C5F88430C5F88830002385F88030C3
:101CA800032000E00020BDE8F88330B583B0044687
:101CB8000023C0F88C30FFF7CDFD054623681B686C
:101CC80013F0080F0FD123681B6813F0040F18D105
:101CD8002023C4F88430C4F888300020E06684F8F3
:101CE800800003B030BD6FF07E43009303460022AE
:101CF8004FF400112046FFF782FF0028E3D00320AD
:101D0800EFE76FF07E4300932B4600224FF48001EB
:101D18002046FFF774FF0028DAD00320E1E778B304
:101D280010B50446D0F884300BB32423C4F88430AB
:101D38002268136823F0010313602046FFF790FD23
:101D4800012813D0A36ABBB92268536823F49043CF
:101D580053602268936823F02A039360226813680B
:101D680043F0010313602046FFF79FFF10BD80F882
:101D78008030FEF78BFCD8E72046FFF7DBFEE3E771
:101D88000120704784B00346184A92E8030004AA69
:101D980002E9030016496A4603C982E803005A6E3D
:101DA80032B90122A3F86A20A3F8682004B070476A
:101DB80019688A68C2F34262886804A901EB507006
:101DC80010F8081CC90010F8100C91FBF0F1A3F8EA
:101DD8006A1004A90A4412F8081CC90012F8102C49
:101DE80091FBF2F2A3F86820E0E700BFB41F0008F7
:101DF800D41F000890F88030012B18D0012380F8F8
:101E080080302423C0F8843003681A68196821F0E8
:101E18000101196022F000520023436601680A603C
:101E28002022C0F8842080F88030184670470220AD
:101E3800704738B590F88030012B1DD00446012337
:101E480080F880302423C0F8843003681D681A683D
:101E580022F001021A600268936823F06043194374
:101E68009160FFF78FFF23681D602023C4F884303A
:101E7800002084F8800038BD0220FCE738B590F8CF
:101E88008030012B1DD00446012380F880302423A4
:101E9800C0F8843003681D681A6822F001021A60CD
:101EA8000268936823F0606319439160FFF76AFF43
:101EB80023681D602023C4F88430002084F8800043
:101EC80038BD0220FCE770470D488546FFF7FBFF49
:101ED8000C480D490D4A002302E0D458C45004337D
:101EE800C4188C42F9D30A4A0A4C002301E0136053
:101EF8000432A242FBD300F011F8FEF79FFBFEE785
:101F08000080002000000020100000209820000819
:101F180010000020D0000020FEE7000070B50D4D35
:101F28000D4C641BA4100026A64209D10B4D0C4C85
:101F380000F020F8641BA4100026A64205D170BD4D
:101F480055F8043B98470136EEE755F8043B9847A7
:101F58000136F2E788200008882000088820000859
:101F68008C20000802440346934200D1704703F8CE
:101F7800011BF9E7F8B500BFF8BC08BC9E467047DE
:101F8800F8B500BFF8BC08BC9E46704700000000CA
:101F9800120024003000000006000C0010000000B1
:101FA8000000000001000000020000000101010320
:101FB80007010000010002000400060008000A00F2
:101FC8000C001000200040008000000108040204FA
:101FD80008010101000000000100000003000000EA
:101FE80005000000010000000100000006000000DC
:101FF8000A000000200000000200000004000000A9
:1020080008000000100000004000000080000000F0
:1020180000010000000200000000000000000000B5
:1020280000000000000000000100000002000000A5
:102038000300000004000000A0860100400D03001A
:10204800801A060000350C0040420F0080841E00F4
:1020580000093D0000127A000024F40000366E01E9
:102068000048E801006CDC020000000000000000ED
:08207800000000000000000060
:0820800028E1FF7F01000000D0
:082088005D01000800000000EA
:08209000390100080000000006
:10209800010000001000000000093D0000000000E1
:0400000508001ED100
:00000001FF
